:100000000C9460000C9450080C9450080C94500808
:100010000C9450080C9450080C9450080C94500800
:100020000C9450080C9450080C9450080C945008F0
:100030000C9450080C9450080C9450080C945008E0
:100040000C9450080C9450080C9450080C945008D0
:100050000C9450080C9450080C9450080C945008C0
:100060000C9450080C9450080C9450080C945008B0
:100070000C9450080C9450080C9450080C945008A0
:100080000C9450080C9450080C9450089C04A6043E
:10009000B004BA04C404CE04D804E204EC04F604A8
:1000A0000A0514051E05280532053C0546055005C0
:1000B0005A0564050100011180011108A50010A472
:1000C00011241FBECFEFD0E1DEBFCDBFE4EBF0E0E7
:1000D00040E019C0B791A79137912791079107FD8B
:1000E0000EC097918791EF01F92FE82F0BBF079072
:1000F0000D92A217B307D9F7FE011BBE04C01D92D3
:10010000A217B307E1F7E03CF40721F70E942D02A4
:080110000C948A00F894FFCF63
:10011800300031003200330034003500360037003B
:06012800380039003E0022
:10012E00CF92DF92EF92FF920F931F93CF93DF93B5
:10013E00CDB7DEB768970FB6F894DEBF0FBECDBF52
:10014E0098E0EDE7F8E0DE01119601900D929A9598
:10015E00E1F798E0E5E8F8E0DE01199601900D92DE
:10016E009A95E1F798E0EDE8F8E0DE0151960190FE
:10017E000D929A95E1F7813009F06EC00E94E10769
:10018E008111FCCF85E50E9421088E010F5F1F4F64
:10019E006E0189E0C80ED11C7801F70181917F01B3
:1001AE000E9421088BEA9DE00197F1F700C0000044
:1001BE00CE14DF0491F784E40E942108EBECFBE5FA
:1001CE003197F1F700C000000E94E107809305010E
:1001DE0085E50E942108F80181918F010E94210876
:1001EE008BEA9DE00197F1F700C00000C016D10622
:1001FE0091F78EEB0E9421080E940F0805E011E096
:10020E00F80180830E940F08F80181839081682F86
:10021E0070E0762F6627690F711D772314F4615FE6
:10022E007F4F7595679575956795759567957595D6
:10023E006795072E000C880B990B0E94CE06062F91
:10024E00172F282F392F009308011093090120939F
:10025E000A0130930B01E3C0823009F06EC00E9498
:10026E00E1078111FCCF85E50E9421088E01075F11
:10027E001F4F6E01F1E1CF0ED11C7801F701819174
:10028E007F010E9421088BEA9DE00197F1F700C0E3
:10029E000000CE14DF0491F784E40E942108EBECF9
:1002AE00FBE53197F1F700C000000E94E107809353
:1002BE00050185E50E942108F80181918F010E94B8
:1002CE0021088BEA9DE00197F1F700C00000C016EF
:1002DE00D10691F78EEB0E9421080E940F0805E0CF
:1002EE0011E0F80180830E940F08F801818390814C
:1002FE00682F70E0762F6627690F711D772314F42F
:10030E00615F7F4F7595679575956795759567953F
:10031E0075956795072E000C880B990B0E94CE06DB
:10032E00062F172F282F392F00930001109301014C
:10033E00209302013093030172C0833009F06EC026
:10034E000E94E1078111FCCF85E50E9421088E01F4
:10035E000F5E1F4F6E01F9E1CF0ED11C7801F70130
:10036E0081917F010E9421088BEA9DE00197F1F7B0
:10037E0000C00000CE14DF0491F784E40E9421082F
:10038E00EBECFBE53197F1F700C000000E94E107AE
:10039E008093050185E50E942108F80181918F0166
:1003AE000E9421088BEA9DE00197F1F700C0000042
:1003BE00C016D10691F78EEB0E9421080E940F08FD
:1003CE0005E011E0F80180830E940F08F801818397
:1003DE009081682F70E0762F6627690F711D772345
:1003EE0014F4615F7F4F7595679575956795759553
:1003FE00679575956795072E000C880B990B0E94D3
:10040E00CE06062F172F282F392F00930D0110938C
:10041E000E0120930F013093100101C004C0562F1E
:10042E00472F382F292F652F742F832F922F6896E1
:10043E000FB6F894DEBF0FBECDBFDF91CF911F91E7
:0C044E000F91FF90EF90DF90CF90089589
:10045A008FEF8ABB84BB82B981BB17BA8EEF8093B8
:10046A0061008FE08093640089E180931B09809387
:10047A001A0981E080931C0910921D0910921E0925
:10048A000E948F0661E08EE198E00E940E060EE15E
:10049A0018E0332433940F2EFCE1CF2EF9E0DF2E3F
:1004AA00F02DCCE0D1E022242394912C0F2EFDE1F3
:1004BA00AF2EF9E0BF2EF02D0E94E107C301B20171
:1004CA000E940907862F0E943807D6018C910E9444
:1004DA0097002B013C0186B3888383FD0DC186B347
:1004EA00888383FFFCCFB3E03B1611F0339402C03C
:1004FA0033243394632DC8010E940E06FDC086B3CF
:10050A00888382FFFCCFE1E03E123A94632DC80152
:10051A000E940E0680910C0181FDF6C086B3888385
:10052A0081FFFCCFD8018C91922D873009F0992D4B
:10053A00992331F1922DB1E03B12992D992301F1C2
:10054A00622DF80183A594A50E940E06D8019F96F4
:10055A008D919C91D0970E94C507F80167A570A953
:10056A00C8010E945006622DC8010E940E068091A1
:10057A000C0180FDC6C086B3888380FFFCCFC1C052
:10058A00922D863009F0992D992371F1822DF3E08D
:10059A003F12892D882341F1622DF801E35AFF4F5A
:1005AA00808191810E940E06D8019F968D919C911F
:1005BA00D0970E94C507F80167A570A9C8010E94D3
:1005CA005006622DC8010E940E0686B38883D601A2
:1005DA008C910E94970080910C0180FD92C086B395
:1005EA00888380FFFCCF8DC0B2E03B1671F0E3E058
:1005FA003E1699F0F1E03F121DC0D8019B968D91ED
:10060A009C919C97009789F415C0F801EB5BFF4F0A
:10061A0080819181009759F40DC0F801E35AFF4F88
:10062A0080819181009729F405C08C0103C08C0157
:10063A0001C08C01632DC8010E940E0680910C0135
:10064A0080FD65C086B3888380FFFCCFF801E18016
:10065A00F280E114F10409F47801632DC7010E94C4
:10066A000E06870180910C0184FD36C086B388830B
:10067A0084FFFCCFD8018C91873079F4B2E03B1229
:10068A000CC0D8019F96ED91FC91D097B9E1B08347
:10069A0062E0C8010E940E061FC0E1E03E1621F08A
:1006AA00F2E03F1669F018C0D8019D96ED91FC91D1
:1006BA009E97309789F0A3019201622D09950CC08B
:1006CA00F801E95BFF4F0190F081E02D309721F0AE
:1006DA00A3019201692D0995F5018081882309F406
:1006EA00EBCEAEE1B9E08C91882309F4E5CEC301E3
:1006FA00B2010E94C205E0CE80910C0182FD0ACFB0
:10070A00FECE33243394AECF80FF9CCFABCF84FF91
:04071A00ADCFE2CFAE
:10071E00CF92DF92EF92FF92CF93823099F128F42D
:10072E00882371F08130E9F0F0C069017A01C62F9B
:10073E00843009F488C0C8F1853009F4D4C0E5C00E
:10074E00662331F08091070180618093070105C017
:10075E00809107018F7E809307018091070183B9F5
:10076E00D4C0662331F08091070180628093070127
:10077E0005C0809107018F7D80930701809107014D
:10078E0083B9C3C0662339F0809107018064806805
:10079E008093070106C0809107018F7B8F7780932E
:1007AE0007018091070183B9B0C060911B0970E009
:1007BE0080E090E00E94CE06A70196010E944608B6
:1007CE001816DCF060911A0970E080E090E00E944B
:1007DE00CE069B01AC01C701B6010E9446088823D4
:1007EE0064F4CC2329F181E080931D0980910701E7
:1007FE008C7F81608093070122C060911A0970E09E
:10080E0080E090E00E94CE069B01AC01C701B601CC
:10081E000E944B08882364F0CC2351F081E0809332
:10082E001D09809107018C7F82608093070107C0AC
:10083E0010921D09809107018C7F80930701809192
:10084E00070183B962C060911B0970E080E090E0FF
:10085E000E94CE069B01AC01C701B6010E944B0857
:10086E008823DCF060911A0970E080E090E00E942D
:10087E00CE069B01AC01C701B6010E944608882333
:10088E0064F4CC2329F181E080931E098091070145
:10089E00837F84608093070122C060911A0970E003
:1008AE0080E090E00E94CE069B01AC01C701B6012C
:1008BE000E944B08882364F0CC2351F081E0809392
:1008CE001E0980910701837F88608093070107C00E
:1008DE0010921E0980910701837F809307018091FA
:1008EE00070183B912C0662331F081E080931D09A0
:1008FE0080931E090AC010921D0910921E09809144
:10090E000701807F8093070183B9CF91FF90EF900D
:06091E00DF90CF90089568
:1009240090E08A30910508F068C0FC01EA5BFF4F53
:100934000C942F082DE030E041E050E068E171E0D4
:1009440080E00E946E0508952DE030E041E050E023
:100954006AE171E080E00E946E0508952DE030E0C8
:1009640041E050E06CE171E080E00E946E05089582
:100974002DE030E041E050E06EE171E080E00E9463
:100984006E0508952DE030E041E050E060E271E052
:1009940080E00E946E0508952DE030E041E050E0D3
:1009A40062E271E080E00E946E0508952DE030E07F
:1009B40041E050E064E271E080E00E946E05089539
:1009C4002DE030E041E050E066E271E080E00E941A
:1009D4006E0508952DE030E041E050E068E271E0FA
:1009E40080E00E946E0508952DE030E041E050E083
:0C09F4006AE271E080E00E946E05089548
:100A000090E08A30910508F068C0FC01E05BFF4F80
:100A10000C942F082EE030E041E050E068E171E0F6
:100A200080E00E946E0508952EE030E041E050E045
:100A30006AE171E080E00E946E0508952EE030E0EA
:100A400041E050E06CE171E080E00E946E050895A5
:100A50002EE030E041E050E06EE171E080E00E9485
:100A60006E0508952EE030E041E050E060E271E074
:100A700080E00E946E0508952EE030E041E050E0F5
:100A800062E271E080E00E946E0508952EE030E0A1
:100A900041E050E064E271E080E00E946E0508955C
:100AA0002EE030E041E050E066E271E080E00E943C
:100AB0006E0508952EE030E041E050E068E271E01C
:100AC00080E00E946E0508952EE030E041E050E0A5
:0C0AD0006AE271E080E00E946E0508956B
:100ADC00CF92DF92EF926B01E82E4130510551F02D
:100AEC0038F04230510541F04330510539F007C020
:100AFC0090E805C090EC03C094E901C094ED290F77
:100B0C0022BBE5E6F0E08081846080830000808178
:100B1C008B7F808380E18A95F1F700C0F6015E2D12
:100B2C000E943F08662321F1A5E6B0E091E09C937A
:100B3C008FEFC81AD80AE80A4E2D960121503109B8
:100B4C004109F901542F0E943F0862BB8C918460CB
:100B5C008C9300008C918B7F8C9383E08A95F1F7BA
:100B6C0000001C92F6015E2D0E943F086111DFCF40
:080B7C00EF90DF90CF90089587
:100B8400CF92DF92EF92FF926B017C0160911B097F
:100B940070E080E090E00E94CE06A70196010E94DA
:100BA40046081816B4F060911A0970E080E090E0ED
:100BB4000E94CE069B01AC01C701B6010E94460803
:100BC40088233CF480910701807F8560809307012E
:100BD4001BC060911A0970E080E090E00E94CE068C
:100BE4009B01AC01C701B6010E944B0888233CF06D
:100BF40080910701807F8A608093070105C08091FE
:100C04000701807F809307018091070183B9FF90DA
:080C1400EF90DF90CF900895EE
:100C1C001F93CF93DF93EC01162FBC016D5F7F4FB9
:100C2C0080E820E030E040E050E00E946E05BE011C
:100C3C00695E7F4F80E820E030E041E050E00E94A8
:100C4C006E05BE016F5C7F4F80E820E030E042E033
:100C5C0050E00E946E05BE01675B7F4F80E820E08C
:100C6C0030E043E050E00E946E05412F50E020E060
:100C7C0030E06CE271E080E00E946E058881885063
:100C8C00823020F48FA598A90E94C507DF91CF91DF
:040C9C001F91089507
:100CA000EF92FF920F931F93CF93DF937C018B0101
:100CB000CCE0D1E080910C0183FD10C086B3888325
:100CC00083FFFCCFF8018081823010F08150808357
:100CD000F70187A590A90E94C50716C082FD14C020
:100CE00086B3888382FFFCCFF8018081833020F0B7
:100CF0000C31F9E01F0741F08F5FF8018083F701A5
:100D000087A590A90E94C50786B3888380FDD2CFAE
:0E0D1000DF91CF911F910F91FF90EF9008950A
:100D1E0088E382BBE5E6F0E080818460808300009A
:100D2E0080818B7F8083000082E48A95F1F700C07A
:100D3E008CE082BB808184608083000080818B7F09
:100D4E008083000092E49A95F1F700C086E082BBA2
:100D5E00808184608083000080818B7F808300008F
:100D6E0082E48A95F1F700C081E082BB80818460C5
:100D7E008083000080818B7F8083000087E893E171
:0A0D8E000197F1F700C0000008957E
:100D9800E89409C097FB3EF490958095709561950D
:100DA8007F4F8F4F9F4F9923A9F0F92F96E9BB27C3
:100DB8009395F695879577956795B795F111F8CF3F
:100DC800FAF4BB0F11F460FF1BC06F5F7F4F8F4FAA
:100DD8009F4F16C0882311F096E911C0772321F0A0
:100DE8009EE8872F762F05C0662371F096E8862F38
:100DF80070E060E02AF09A95660F771F881FDAF78F
:0A0E0800880F9695879597F90895D5
:100E12000E948A0788F09F5798F0B92F9927B751F7
:100E2200B0F0E1F0660F771F881F991F1AF0BA958C
:100E3200C9F714C0B13091F00E943808B1E00895AA
:100E42000C943808672F782F8827B85F39F0B93F9C
:100E5200CCF3869577956795B395D9F73EF490953F
:0E0E62008095709561957F4F8F4F9F4F08953B
:100E70009DEC899F212D1124269526952695299F45
:100E8000912D1124969596959695990F392F330F9C
:100E9000330F930FE22FE91BF0E0EB56F74F9081F1
:100EA0009BBB220F922F990F990F290F821BE82FBE
:0C0EB000F0E0EB56F74F808185BB089501
:100EBC00990F0008550FAA0BE0E8FEEF161617065F
:100ECC00E807F907C0F012161306E407F50798F0C7
:100EDC00621B730B840B950B39F40A2661F0232BE0
:100EEC00242B252B21F408950A2609F4A140A6955C
:080EFC008FEF811D811D089597
:100F040057FD9058440F551F59F05F3F71F04795B6
:100F1400880F97FB991F61F09F3F79F0879508959B
:100F2400121613061406551FF2CF4695F1DF08C0BA
:100F3400161617061806991FF1CF869571056105D7
:040F44000894089570
:100F4800813071F480936100E2E6F0E0108292E073
:100F58009A95F1F7808385E18A95F1F70000089565
:100F680081110EC081E080936100E2E6F0E010821A
:100F780094E19A95F1F7808383E08A95F1F7000070
:020F88000895CA
:100F8A00CF93DF93FC01D081CDECDC9FC12D1124DE
:100F9A00C695C695C6958C2F90E00E949204CC0FF8
:100FAA008C2F880F880FC80F8D2F8C1B90E00E9402
:080FBA000005DF91CF910895BD
:100FC200E2E6F0E080818E7F8083E1E6F0E08081DE
:100FD2008160808380EA8A95F1F780818E7F8083A9
:100FE20094E19A95F1F780B19CE89A95F1F78170B6
:020FF200089560
:100FF400E1E6F0E081E08083A2E6B0E01C9292E0BA
:101004009A95F1F78C9383E08A95F1F7108280B179
:0A10140092E19A95F1F700000895AB
:10101E00CF93DF93D8E0C0E00E94FA0720E8829FCA
:10102E00C0011124C695C82BD150B1F78C2FDF917A
:04103E00CF910895B1
:10104200CF93DF93D82FC8E08D2F81700E94A40721
:0C105200D695C150C9F7DF91CF910895E9
:10105E00EE0FFF1F0024001C0BBE0790F691E02D33
:02106E000994E3
:0E107000E894BB2766277727CB0197F90895F0
:0E107E0057FD03C05BBF679108956081089520
:0A108C000E945E0708F481E0089559
:0A1096000E945E0708F48FEF089532
:0410A0000C940000AC
:1010A400082E022020202020204368616E6E656C8B
:1010B400202020202020202020204368616E6E659F
:1010C4006C3A202020202020202020000000001C3A
:1010D400092020204261636B202020202020202032
:1010E40020202020202E0200002020204E6F6E653C
:0F10F4002020202020202020202020202000004D
:10110300082E02202020204C6F77657220746872AD
:101113006573686F6C642020202076616C75653A76
:101123002020202020202020202020000000001B41
:10113300092020204261636B2020202020202020D2
:1011430020202020202E0200002020204E6F6E65DC
:0F115300202020202020202020202020200000ED
:10116200082E02202020205570706572207468724B
:101172006573686F6C642020202076616C75653A17
:101182002020202020202020202020000000001AE3
:10119200092020204261636B202020202020202073
:1011A20020202020202E0200002020204E6F6E657D
:0F11B2002020202020202020202020202000008E
:1011C100001E08202020202020446973706C617962
:1011D100202020202020202020204368616E6E6581
:1011E1006C20202020202020202020110100001C24
:1011F10009202020557070657220746872657368CB
:101201006F6C642020CF0100002020204C6F776597
:0F12110072207468726573686F6C6420207001BE
:1012200000850520202020202053657420636861FC
:101230006E6E656C2020002020202056616C756544
:101240003A20202020202020202000000000001C28
:10125000092020202055503A2B202020202020201B
:1012600020202020000000000020202020444F5794
:0F1270004E3A2D2020202020202020200000009A
:10127F0002090420202020202052454C41595320A0
:10128F00332B3420200000202020204F4E20202000
:10129F00202020202020202020000000008F03008D
:1012AF0000202020204F46462020202020202020D4
:1012BF00202020000000008F0320202020426163A7
:0F12CF006B202020202020202020200000090458
:1012DE0001090420202020202052454C4159532042
:1012EE0032202020200000202020204F4E202020C1
:1012FE00202020202020202020000000008F03002E
:10130E0000202020204F4646202020202020202074
:10131E00202020000000008F032020202042616347
:0F132E006B2020202020202020202000000904F8
:10133D0000090420202020202052454C41595320E3
:10134D0031202020200000202020204F4E20202062
:10135D00202020202020202020000000008F0300CE
:10136D0000202020204F4646202020202020202015
:10137D00202020000000008F0320202020426163E8
:0F138D006B202020202020202020200000090499
:10139C0000850520202020202052454C4159532007
:1013AC00202020202000002020202052454C415994
:1013BC002031202020202020200000AA0300000043
:1013CC00002020202052454C415920322020202042
:1013DC0020202000004B0300002020202052454CF0
:0F13EC00415920332B3420202020200000EC0218
:1013FB000326052020202020204D4F544F52203013
:10140B0031202020000000202020204F6E202020A3
:10141B00202020202020202000000000008F03002F
:10142B0000202020204F4646202020202020202056
:10143B00202000000000008F032020202042616349
:0F144B006B2020202020202020200000002605DC
:10145A000426052020202020204D4F544F522030B2
:10146A0032202020200000202020204F6E20202023
:10147A00202020202020202020000000008F0300B0
:10148A0000202020204F46462020202020202020F7
:10149A00202020000000008F0320202020426163CA
:0F14AA006B20202020202020202020000026055D
:1014B9000085052020202020204D4F544F525320D5
:1014C90020202020000000202020204D6F746F7202
:1014D9007320303120202020000000680400000023
:1014E90000202020204D6F746F727320303220202D
:1014F9002020000000C70400002020202042616352
:0F1509006B2020202020202020200000008505BE
:10151800061E082020202020204D616E75616C2059
:1015280020202020000000202020204D4F544F5222
:101538005320202020202020000000260500001C29
:10154800092020202052454C41595320202020209A
:1015580020200000000904000020202020436861AA
:0F1568006E6E656C2020202020200000008D0278
:10157700090107202020205365742076616C75656A
:101587002020202020200020202056616C75653AFD
:101597002020202020202020202000000000000004
:1015A7000020202055503A2B2020202020202020CA
:1015B700202020200000000000202020444F574E0C
:0F15C7003A2D202020202020202020200000006E
:1015D60000600720202020536574206368616E6ECA
:1015E600656C20202020002020202056616C756527
:1015F6003A20202020202020202000000000001C6F
:10160600092020202055503A2B2020202020202061
:1016160020202020000000000020202020444F57DA
:0F1626004E3A2D202020202020202020000000E0
:10163500076007202020204C6F7765722074687240
:101645006573686F6C64202020205365742020200A
:101655002020202020202020202020E40500001B21
:1016650009202020436C6561722020202020202045
:101675002020202020000000002020204E6F6E65D5
:0F168500202020202020202020202020200000B6
:1016940007600720202020557070657220746872DE
:1016A4006573686F6C6420202020536574202020AB
:1016B4002020202020202020202020E40500001AC3
:1016C40009202020436C65617220202020202020E6
:1016D4002020202020000000002020204E6F6E6576
:0F16E40020202020202020202020202020000057
:1016F30006BF072020202053657474696E6720207D
:101703002020202020202020205570706572207416
:1017130068726573686F6C64202020010700001CE9
:101723000920204C6F776572207468726573686F47
:101733006C64202020A206000020204368616E6EA6
:0F174300656C202020202020202020202043061D
:10175200051E082020202020204175746F202020A3
:1017620020202020200000202020204F4E2020205A
:10177200202020202020202020000000008F0300B5
:1017820000202020204F46462020202020202020FC
:10179200202020000000008F0320202020536574A9
:0F17A20074696E6720202020202020000060073F
:1017B1000000002020202020204D41494E204D4591
:1017C1004E552020202000202020204175746F20BC
:1017D1002020202020202020202000BF0700000002
:1017E10000202020204D616E75616C20202020207A
:1017F100202020200085050000202020204469733E
:0F180100706C61792020202020202020002E02F2
:1018100028901119000000B52891111900000082CC
:0818200028921119000000DB01
:10182800C0F9A4B0999282F880908883C6A1868E68
:00000001FF
